:100000000C9458000C9480000C9480000C94800098
:100010000C9480000C9480000C9480000C94800060
:100020000C9480000C9480000C9480000C94800050
:100030000C9480000C9480000C9480000C94800040
:100040000C9436040C9480000C9404040C94DE038D
:100050000C9480000C9480000C9480000C94800020
:100060000C9480040C9480000000000025002800FF
:100070002B00040404040404040402020202020229
:10008000030303030303010204081020408001025C
:1000900004081020010204081020000000080002DB
:1000A00001000003040700000000000000009B05A1
:1000B00011241FBECFEFD8E0DEBFCDBF11E0A0E01E
:1000C000B1E0E4E4F3E102C005900D92AC34B10775
:1000D000D9F722E0ACE4B1E001C01D92A53BB20724
:1000E000E1F710E0C8E5D0E004C02197FE010E94CE
:1000F0009A09C735D107C9F70E94D7050C94A00902
:100100000C94000090E0FC01E656FF4F2491FC01A6
:10011000EA57FF4F3491FC01EE58FF4FE491EE2374
:10012000B1F0222339F02330E9F090F4213001F1CD
:10013000223011F1F0E0EE0FFF1FE859FF4FA591BB
:10014000B4918FB7F894EC913E2B3C938FBF0895F8
:100150002730A9F02830C9F0243061F78091800061
:100160008F7D03C0809180008F7780938000E2CFE5
:1001700084B58F7784BDDECF84B58F7DFBCF809132
:10018000B0008F778093B000D5CF8091B0008F7D85
:10019000F9CFAF92BF92CF92DF92EF92FF920F937F
:1001A0001F93CF93DF936C017B018B01040F151F0D
:1001B000EB015E01AE18BF08C017D10759F0699175
:1001C000D601ED91FC910190F081E02DC6010995D9
:1001D000892B79F7C501DF91CF911F910F91FF9086
:1001E000EF90DF90CF90BF90AF900895FC01538DBA
:1001F000448D252F30E0842F90E0821B930B541701
:1002000010F0CF96089501970895FC01918D828D8D
:10021000981761F0A28DAE0FBF2FB11D5D968C9126
:10022000928D9F5F9F73928F90E008958FEF9FEF65
:100230000895FC01918D828D981731F0828DE80F21
:10024000F11D858D90E008958FEF9FEF0895FC01DB
:10025000918D228D892F90E0805C9F4F821B9109A8
:100260008F73992708958BE092E00E94270121E087
:10027000892B09F420E0822F089580E090E0892BFB
:1002800029F00E94330181110C9400000895FC01B3
:10029000A48DA80FB92FB11DA35ABF4F2C91848DE7
:1002A00090E001968F739927848FA689B7892C9344
:1002B000A089B1898C9180648C93938D848D9813DF
:1002C00006C00288F389E02D80818F7D80830895A8
:1002D000EF92FF920F931F93CF93DF93EC01F62ED3
:1002E00081E0888F9B8D8C8D981316C0E889F989E1
:1002F000808185FF11C0EE89FF896083E889F989D3
:1003000080818064808381E090E0DF91CF911F91B4
:100310000F91FF90EF9008950B8D10E00F5F1F4F2E
:100320000F731127E02E8C8D8E110CC00FB607FCB9
:10033000FACFE889F989808185FFF5CFCE010E9447
:100340004701F1CFEB8DEC0FFD2FF11DE35AFF4F6D
:10035000F0820B8FEA89FB8980818062D3CFCF93B3
:10036000DF93EC01888D8823B9F0AA89BB89E889DD
:10037000F9898C9185FD03C0808186FD0DC00FB683
:1003800007FCF7CF8C9185FFF2CF808185FFEDCF01
:10039000CE010E944701E9CFDF91CF9108953FB789
:1003A000F8948091940190919501A0919601B0915B
:1003B000970126B5A89B05C02F3F19F00196A11DF6
:1003C000B11D3FBFBA2FA92F982F8827BC01CD019F
:1003D000620F711D811D911D42E0660F771F881FFE
:1003E000991F4A95D1F7089585ED8093BC008091BF
:1003F000BC0084FDFCCF1092E601089520916C01B1
:10040000260F3327331F21323105ECF42091E6010A
:10041000FC0190E080E0243069F082E00895A09132
:100420006C012191AC01445B5E4FA40FB52FB11D4F
:100430002C930196861798F380916C01680F609356
:100440006C0180E0089581E008950895E0919F0196
:1004500080919E01E81730F4F0E0E056FE4F808175
:1004600090E008958FEF9FEF089590919F01809104
:100470009E012FEF3FEF981748F4E92FF0E0E05688
:10048000FE4F208130E09F5F90939F01C901089546
:1004900080919E0190919F01891B990B0895CF92A5
:1004A000DF92EF92FF920F931F93CF93DF937C0124
:1004B000CB018A0120910A02222389F0EB016B0112
:1004C000C40ED51ECC15DD0569F06991D701ED91FB
:1004D000FC910190F081E02DC7010995F3CF642FC5
:1004E0000E94FE01C801DF91CF911F910F91FF90F3
:1004F000EF90DF90CF900895CF93DF931F92CDB709
:10050000DEB7698320910A022223F9F020910702C5
:10051000203258F021E030E0FC013383228390E068
:1005200080E00F90DF91CF91089580910802E82F2D
:10053000F0E0E951FE4F998190838F5F809308022C
:100540008093070281E090E0ECCF61E0CE0101965C
:100550000E94FE01F7CF90E080E00895FC01019039
:100560000020E9F73197AF01481B590BBC018BE024
:1005700092E00C94C9008F929F92AF92BF920F931A
:100580001F93CF93DF93CDB7DEB7A1970FB6F89443
:10059000DEBF0FBECDBF19A2423008F44AE08E0183
:1005A0000F5D1F4F842E912CB12CA12CA50194011D
:1005B0000E947809E62FB901CA01EA30F4F4E05D3F
:1005C000D801EE938D01232B242B252B79F790E076
:1005D00080E0109719F0CD010E94AE02A1960FB6EF
:1005E000F894DEBF0FBECDBFDF91CF911F910F9169
:1005F000BF90AF909F908F900895E95CE1CFCF922C
:10060000DF92EF92FF92CF93DF936B017C016DE25B
:100610008BE092E00E946801EC0166277727CB010E
:100620006C197D098E099F094AE00E94BB028C0F5C
:100630009D1FDF91CF91FF90EF90DF90CF900895B5
:10064000CF93DF93C091B40291E090930A02C093DC
:1006500009021092080210920702682F88EA92E0BD
:100660000E947C0290910702913208F03FC0809175
:10067000E6018111FCCF82E08093E6011092E50152
:100680008FEF8093E4011092E3019093E201A7EED3
:10069000B1E0E2ECF1E080E0981384C01092C10177
:1006A0008091C101CC0FC82BC093C1018091C001C2
:1006B000813009F07BC01092C0018091C10180930C
:1006C000BB008091BC0083FDF8CF85EC8093BC001B
:1006D0008091E6018230E1F38091E4018F3F31F0B7
:1006E0008091E401803211F08091E40110920802BF
:1006F0001092070210920A028091B4029091E601D2
:100700009111FCCF91E09093E6019093E5012FEFDA
:100710002093E4011092E30122E02093E201909300
:10072000C1019091C101880F892B8093C1018091F3
:10073000C0018130E9F51092C0018091C101809320
:10074000BB008091BC0083FDF8CF85EC8093BC009A
:100750008091E6018130E1F38091E30193E0833001
:1007600010F49091E301A2ECB1E0E0EAF1E080E066
:10077000891320C010929F0180939E0188EA92E025
:100780000E943502EC0188EA92E00E94350220E0E6
:10079000C22BD82B88EA92E00E943502CE01DF916D
:1007A000CF9108952D9121938F5F76CF85EE8ECFD7
:1007B00085EECCCF2D9121938F5FDACF1F920F92D0
:1007C0000FB60F9211242F933F934F935F936F9324
:1007D0007F938F939F93AF93BF93EF93FF938BE0A0
:1007E00092E00E944701FF91EF91BF91AF919F91DD
:1007F0008F917F916F915F914F913F912F910F90CA
:100800000FBE0F901F9018951F920F920FB60F9268
:1008100011242F938F939F93EF93FF93E0911B02EB
:10082000F0911C028081E0912102F091220282FD70
:100830001BC09081809124028F5F8F7320912502CD
:10084000821741F0E0912402F0E0E55FFD4F958FC3
:1008500080932402FF91EF919F918F912F910F90A0
:100860000FBE0F901F9018958081F4CF1F920F92AA
:100870000FB60F9211242F933F938F939F93AF93B3
:10088000BF938091900190919101A0919201B091BC
:10089000930130918F0123E0230F2D3758F50196F6
:1008A000A11DB11D20938F01809390019093910120
:1008B000A0939201B093930180919401909195013E
:1008C000A0919601B09197010196A11DB11D809351
:1008D000940190939501A0939601B0939701BF91D5
:1008E000AF919F918F913F912F910F900FBE0F90DD
:1008F0001F90189526E8230F0296A11DB11DD2CF97
:100900001F920F920FB60F9211242F933F934F9384
:100910005F936F937F938F939F93AF93BF93EF9367
:10092000FF938091B900887F803609F44AC0F0F5C2
:10093000883209F4A5C018F5803109F499C0B8F4DB
:10094000882309F4F5C0883009F492C0FF91EF9133
:10095000BF91AF919F918F917F916F915F914F91D7
:100960003F912F910F900FBE0F901F9018958831D7
:1009700009F486C0803251F78093E40114C08034BA
:1009800009F49BC040F48033B9F38833F9F68093BF
:10099000E40185ECAEC0803509F483C0883509F4E4
:1009A00094C0883499F60E94F401D0CF883909F4B4
:1009B0008AC038F5883729F050F4883611F080372E
:1009C00029F683E08093E60110928E0155C08838A5
:1009D00009F479C0803919F0803809F0B7CF8091D7
:1009E0008E01803208F06FC0E0918E0181E08E0FA1
:1009F00080938E018091BB00F0E0E259FE4F80832E
:100A00003BC0803B39F0D0F4803A09F477C0883A93
:100A100009F09CCF84E08093E60110926D01109262
:100A20006C01F0E0E0E0099580916C0181110FC04C
:100A300081E080936C0110924C0109C0803C09F464
:100A4000A8CF883C09F4A5CF883B09F07FCFE0917F
:100A50006D0181E08E0F80936D01F0E0E45BFE4F4D
:100A600080818093BB0090916D0180916C0129C0C1
:100A70008091C1018093BB0085EC8093BC0066CF60
:100A80009091E3018091E201981758F5E091E3011C
:100A900081E08E0F8093E301F0E0EE53FE4F808102
:100AA000E9CFE091E30181E08E0F8093E301809133
:100AB000BB00F0E0EE53FE4F80839091E301809104
:100AC000E2019817C8F285E8D8CFE091E30181E010
:100AD0008E0F8093E3018091BB00F0E0EE53FE4F58
:100AE00080838091E50181115ECF81E08093C00118
:100AF00084EA8093BC001092E60128CF85EC8093B5
:100B0000BC001092E60180918E01803230F4E091B9
:100B10008E01F0E0E259FE4F108260918E0170E08C
:100B20008EE691E0F0E0E0E0099510928E010ECFA4
:100B30001092E40138CFEBE0F2E01382128288EEEB
:100B400093E0A0E0B0E084839583A683B78324E09C
:100B500031E03183208325EC30E03587248724EC95
:100B600030E03787268720EC30E0318B208B21EC7A
:100B700030E0338B228B22EC30E0358B248B26EC5B
:100B800030E0378B268B118E128E138E148EE8EA8E
:100B9000F2E01382128284839583A683B78386E171
:100BA00091E0918380838BE58093B40208957894DB
:100BB00084B5826084BD84B5816084BD85B5826062
:100BC00085BD85B5816085BD80916E008160809313
:100BD0006E0010928100809181008260809381007C
:100BE000809181008160809381008091800081608C
:100BF000809380008091B10084608093B1008091E7
:100C0000B00081608093B00080917A00846080930E
:100C10007A0080917A00826080937A0080917A00D5
:100C2000816080937A0080917A00806880937A0056
:100C30001092C100E0911B02F0911C0282E08083BF
:100C4000E0911702F09118021082E0911902F091E0
:100C50001A028FEC808310922302E0911F02F09120
:100C6000200286E08083E0911D02F0911E028081C7
:100C700080618083E0911D02F0911E028081886076
:100C80008083E0911D02F0911E0280818068808344
:100C9000E0911D02F0911E0280818F7D8083109271
:100CA0009F0110929E01109208021092070210926A
:100CB000E60181E08093E5011092C00182E10E948B
:100CC000820083E10E9482008091B9008E7F809330
:100CD000B9008091B9008D7F8093B90088E480933A
:100CE000B80085E48093BC008EE10E9420038FE170
:100CF0000E94200384E291E00E94AE028AE391E028
:100D00000E94AE0211E4C0E0D0E010937C0080911C
:100D10007A00806480937A0080917A0086FDFCCF0F
:100D2000909178008091790089279827892790935E
:100D30009D0180939C0187E20E942003BC0190E00A
:100D400080E00E944F082AE037ED43EA5CE30E940E
:100D5000060923E333E948E853E40E94AE076093B1
:100D600098017093990180939A0190939B014AE0B6
:100D700060E070E0CB010E94BB028DE391E00E9435
:100D8000AE0260919C0170919D01072E000C880BB2
:100D9000990B97FF4DC00E94FF028DE391E00E94E6
:100DA000AE02C0909801D0909901E0909A01F09025
:100DB0009B01A7019601C701B6010E947309882310
:100DC000D9F18FE391E00E94AE028AE391E00E94A4
:100DD000AE020E94CF014B015C0182E3C82ED12CF0
:100DE000E12CF12C0E94CF01681979098A099B092D
:100DF000683E734081059105A8F321E0C21AD1082D
:100E0000E108F10888EE880E83E0981EA11CB11C51
:100E1000C114D104E104F10429F7209709F475CF36
:100E20000E943301882309F470CF0E9400006DCF27
:100E30004AE00E94BB02B1CF46015701E894B7F8DF
:100E40002FEF3FEF4FE75FE7C501B4010E94730941
:100E500081110DC02FEF3FEF4FE75FE7C501B401F0
:100E60000E941B0818161CF483E491E0ACCF2FEF0E
:100E70003FEF4FE75FE4C701B6010E940109181672
:100E80001CF487E491E09FCF2FEF3FEF4FE75FEC3B
:100E9000C701B6010E941B0887FDF3CF20E030E0B8
:100EA000A901C701B6010E941B0887FF09C06DE2B6
:100EB0008BE092E00E946801F7FAF094F7F8F09462
:100EC0002AE037ED43EA5BE3C701B6010E94AF07B2
:100ED0004B015C010E9420086B017C010E944F08BD
:100EE0009B01AC01C501B4010E94AE074B015C013E
:100EF0004AE0C701B6010E94BB026EE28BE092E0BD
:100F00000E94680120E030E040E251E4C501B401F4
:100F10000E9406094B015C010E9420086B01F12C24
:100F2000E12C4AE0C701B6010E94BB02C701B6012D
:100F30000E944F089B01AC01C501B4010E94AE079D
:100F400020E030E040E251E40E9406090E942008BF
:100F500090E080E04AE00E94BB0237CF5058BB27A8
:100F6000AA270E94C6070C94C7080E94B90838F047
:100F70000E94C00820F039F49F3F19F426F40C9425
:100F8000B6080EF4E095E7FB0C94B008E92F0E9438
:100F9000D80858F3BA17620773078407950720F03B
:100FA00079F4A6F50C94FA080EF4E0950B2EBA2FFE
:100FB000A02D0B01B90190010C01CA01A00111245F
:100FC000FF27591B99F0593F50F4503E68F11A160B
:100FD000F040A22F232F342F4427585FF3CF46959C
:100FE00037952795A795F0405395C9F77EF41F16BE
:100FF000BA0B620B730B840BBAF09150A1F0FF0F88
:10100000BB1F661F771F881FC2F70EC0BA0F621F73
:10101000731F841F48F4879577956795B795F79563
:101020009E3F08F0B0CF9395880F08F09927EE0FF8
:101030009795879508950E948C0808F481E008959B
:101040000E94E00888F09F5798F0B92F9927B75170
:10105000B0F0E1F0660F771F881F991F1AF0BA955C
:10106000C9F714C0B13091F00E94FA08B1E00895B8
:101070000C94FA08672F782F8827B85F39F0B93FAA
:10108000CCF3869577956795B395D9F73EF490950F
:101090008095709561957F4F8F4F9F4F0895E8948D
:1010A00009C097FB3EF490958095709561957F4FB0
:1010B0008F4F9F4F9923A9F0F92F96E9BB2793955E
:1010C000F695879577956795B795F111F8CFFAF46E
:1010D000BB0F11F460FF1BC06F5F7F4F8F4F9F4F9F
:1010E00016C0882311F096E911C0772321F09EE8FD
:1010F000872F762F05C0662371F096E8862F70E063
:1011000060E02AF09A95660F771F881FDAF7880F3C
:101110009695879597F90895990F0008550FAA0B92
:10112000E0E8FEEF16161706E807F907C0F01216FA
:101130001306E407F50798F0621B730B840B950BFD
:1011400039F40A2661F0232B242B252B21F4089552
:101150000A2609F4A140A6958FEF811D811D0895EF
:1011600097F99F6780E870E060E008959FEF80EC5A
:10117000089500240A9416161706180609060895FD
:1011800000240A9412161306140605060895092E63
:101190000394000C11F4882352F0BB0F40F4BF2BD2
:1011A00011F460FF04C06F5F7F4F8F4F9F4F089512
:1011B00057FD9058440F551F59F05F3F71F0479508
:1011C000880F97FB991F61F09F3F79F087950895ED
:1011D000121613061406551FF2CF4695F1DF08C00C
:1011E000161617061806991FF1CF86957105610529
:1011F00008940895E894BB2766277727CB0197F9D1
:1012000008950E948C0808F48FEF08950E94190930
:101210000C94C7080E94B90838F00E94C00820F05A
:10122000952311F00C94B0080C94B60811240C947A
:10123000FB080E94D80870F3959FC1F3950F50E00A
:10124000551F629FF001729FBB27F00DB11D639F78
:10125000AA27F00DB11DAA1F649F6627B00DA11D1E
:10126000661F829F2227B00DA11D621F739FB00DC4
:10127000A11D621F839FA00D611D221F749F332734
:10128000A00D611D231F849F600D211D822F762FCD
:101290006A2F11249F5750409AF0F1F088234AF0AA
:1012A000EE0FFF1FBB1F661F771F881F9150504016
:1012B000A9F79E3F510580F00C94B0080C94FB08F0
:1012C0005F3FE4F3983ED4F3869577956795B7959D
:1012D000F795E7959F5FC1F7FE2B880F911D9695B7
:1012E000879597F908950E948C08880B990B0895AB
:1012F000A1E21A2EAA1BBB1BFD010DC0AA1FBB1F1A
:10130000EE1FFF1FA217B307E407F50720F0A21B8B
:10131000B30BE40BF50B661F771F881F991F1A94F8
:1013200069F760957095809590959B01AC01BD0122
:10133000CF010895EE0FFF1F0590F491E02D099461
:04134000F894FFCF4F
:10134400000000006801C900F600AF012701050193
:101354001901000000007C024F02AB022502480282
:10136400350226025374617274696E6720636F6C70
:101374006C6563746F722E2E2E000D0A002C006EA5
:0C138400616E00696E66006F7666000006
:00000001FF
